:02000004080AE8
:1000000000000A08180E0A08000006000600050194
:080010000402E60C00000000F0
:04001800A80B0A081F
:10001C0009480A4908B5884205D0094A824202D0EB
:10002C00121A00F007FD0748074A0021121A00F0C7
:10003C000FFD064808BD00BF00000020840D0A0813
:10004C006C0000206C000020A1010020A101002008
:10005C0070B500F03BFA0025054E064CA41BA40815
:10006C00AC4200D170BD56F8043B98470135F7E718
:10007C00600D0A087C0D0A0800F013B808B500F0F2
:10008C0011F8BDE8084000F0D9B900F011B900F042
:10009C0017B90078B0FA80F040097047012303705B
:1000AC00704770477047000008B5024B1B685B68CF
:1000BC00019308BD9C01060808B5024B1B685B69DF
:1000CC00019308BD9C01060808B5024B1B685B6ACE
:1000DC00019308BDC401060808B5024B1B689B6A56
:1000EC00019308BDC401060808B5024B1B68DB6A06
:1000FC00019308BDC401060808B5024B1B681B6BB5
:10010C00019308BDC401060808B5024B1B685B6B64
:10011C00019308BDC401060808B5024B1B681B6C93
:10012C00019308BDC401060808B5024B1B681B6E81
:10013C00019308BDC401060808B5024B1B681B6877
:10014C00019308BDD801060808B5024B1B681B6952
:10015C00019308BDD801060808B5024B1B685B6902
:10016C00019308BDD801060808B5024B1B689B69B2
:10017C00019308BDD801060808B5024B1B68DB6962
:10018C00019308BDD801060808B5024B1B681B6A11
:10019C00019308BDD801060808B5024B1B689B6C7F
:1001AC00019308BDC001060808B5024B1B685B68CB
:1001BC00019308BDA401060808B5034B1B68D3F8CE
:1001CC009030019308BD0000A401060808B5034B4C
:1001DC001B68D3F89C30019308BD0000A4010608ED
:1001EC0008B5024B1B685B68019308BDC801060883
:1001FC0008B5024B1B689B68019308BDC801060833
:10020C0008B5024B1B68DB68019308BDC8010608E2
:10021C0008B5024B1B681B69019308BDC801060891
:10022C0008B5024B1B685B69019308BDC801060841
:10023C0008B5024B1B689B69019308BDC8010608F1
:10024C0008B5024B1B68DB69019308BDC8010608A1
:10025C0008B5024B1B681B6A019308BDC801060850
:10026C0008B5024B1B681B6B019308BDC80106083F
:10027C0008B5024B1B685B6B019308BDC8010608EF
:10028C0008B5024B1B681B6C019308BDC80106081E
:10029C0008B5024B1B685B6C019308BDC8010608CE
:1002AC0008B5024B1B68DB6B019308BDCC0106083B
:1002BC0008B5024B1B681B68019308BDA00106081A
:1002CC0008B5024B1B685B68019308BDA0010608CA
:1002DC0008B5024B1B681B6C019308BDA0010608F6
:1002EC0008B5024B1B685B6C019308BDA0010608A6
:1002FC0002220020044B1A60044B054AC3E900009B
:10030C009A60FFF751BF00BF780000206C000020FE
:10031C000000FFFFF8B506460D4600248F18BD42BD
:10032C000CD0336830469B6815F8011B9847031EA8
:10033C0001DB1C44F3E7002C08BF1C462046F8BD2B
:10034C0070B505460C46084649B100F0B7FB2B6862
:10035C00024621462846BDE87040DB68184770BD50
:10036C0003689B6818470023012A98BF0A2230B5FE
:10037C008BB00C468DF8243009A92546B4FBF2F459
:10038C0004FB1253DBB2092B94BF30333733DBB28F
:10039C00AA4201F8013DF0D9FFF7D2FF0BB030BDF6
:1003AC00014B024A1A6070477C000020BC0B0A0803
:1003BC00024B1A68024B1A60704700BF0000002005
:1003CC00800000200022014B9A60704784000020BE
:1003DC00014B1860704700BF0400002008B5134B98
:1003EC0043B100F063F903681B699847002801DDED
:1003FC00AFF300800E4B43B100F0E2FA03681B69C7
:10040C009847002801DDAFF300800A4B0BB1AFF326
:10041C000080094B43B100F075F903681B699847DC
:10042C00002801DDAFF3008008BD00BF0000000014
:10043C0000000000000000000000000008B5FFF7FD
:10044C00CDFFFFF739FE014B186008BDF40000200A
:10045C000548064A08B5121A054900F0EBFA054B97
:10046C00054A1A6008BD00BF00400240044002402B
:10047C00800D0A08004002401E1C279A002307B575
:10048C001A466FF077010093FFF7A0FE03B05DF8FA
:10049C0004FB000007B543880A2B08D0502B0BD166
:1004AC00094B1B684BB103B05DF804EB1847FFF721
:1004BC00E5FF03B05DF804FB00231A466FF07701EB
:1004CC000093FFF783FEF4E798000020002110B59D
:1004DC001148FFF705FF114B1A68114B9A420CBFDC
:1004EC00012200220F4B1A7001D0FFF7B1FFFFF76A
:1004FC00DBFD044600F0B4FA0B4B13B12046AFF30E
:10050C00008000210848FFF7CBFEBDE81040002119
:10051C000648FFF751BE00BFDD030A080040024049
:10052C001E1C279A9400002000000000A1040A0859
:10053C007047F8B50E46002400F10807051D17F8A2
:10054C00011D0A223046FFF70EFFAF42044401D1D1
:10055C002046F8BD002CF2D02E213046FFF700FFCC
:10056C000444ECE710B504461821FFF790FD204633
:10057C0010BD000010B50446044B1122002140F8B8
:10058C00043B00F065FA204610BD00BFE40B0A08DE
:10059C000346074A10B543F8042B01F1100251F839
:1005AC00044B914243F8044BF9D10A781A7010BDF0
:1005BC00E40B0A08024AC0E90021042202757047C4
:1005CC00E40B0A0810B59DF8084044EA0324042300
:1005DC0044EA024444EA01644460037510BD00001F
:1005EC0013B5044C04609DF810400094FFF7EAFF2B
:1005FC0002B010BDE40B0A08417470477047704795
:10060C0008B50021007CFFF7AFFD40EAE07008BDA3
:10061C0008B50121007CFFF7A7FD40EAE07008BD9A
:10062C0008B5007CFFF798FD20EAE07008BD08B51E
:10063C00007CFFF789FD20EAE07008BD38B5044660
:10064C00007C0D46FFF788FD002801DC607C28B19A
:10065C002946207CFFF790FD20EAE07038BD007C35
:10066C00FFF792BD10B504461421FFF710FD20468C
:10067C0010BD704710B54FF47A730446084600213C
:10068C00C4E90113044B20742360012311466374E5
:10069C00FFF752FD204610BDF80B0A0810B50446B2
:1006AC001422002100F0D4F9204610BD30B50E4DB7
:1006BC0087B001A8FFF7F2FF2978BFF35B8F11F029
:1006CC0001040ED12846FFF7E4FC50B1214601AAE3
:1006DC000648FFF7CFFF2846FFF7E0FC044800F080
:1006EC00A3F9024807B030BD9C000020A4000020F4
:1006FC0009060A0810B504461422002100F0A8F9D6
:10070C00204610BD10B50E4C86B001A8FFF7F2FFC5
:10071C002378BFF35B8FDB070ED42046FFF7B9FCC1
:10072C0050B1012101AA0748FFF7A4FF2046FFF7AB
:10073C00B5FC054800F078F9024806B010BD00BFC2
:10074C00A0000020B80000207F060A087047417402
:10075C00704708B5007CFFF7DFFC20EAE07008BDAD
:10076C0008B5007CFFF7B8FC20EAE07008BD08B5BE
:10077C00007CFFF7C1FC40EAE07008BD08B5007CC6
:10078C00FFF7B2FC40EAE07008BD007CFFF7BCBC90
:10079C0070B5467C04460D462EB12946207CBDE83A
:1007AC007040FFF791BC007CFFF7B6FC0028F4DC2E
:1007BC00304670BD10B504461421FFF768FC204686
:1007CC0010BD000010B54FF47A730446084611466C
:1007DC000022C4E90123044B2074236001236374B9
:1007EC00FFF7A2FC204610BD280C0A080022406826
:1007FC001146FFF70DBDF0B5154689B011220E4616
:10080C000446002103A800F023F9284600F056F90D
:10081C00002781B273682846009703AAFFF7BCFC37
:10082C0030B139462046FFF7C5FE204609B0F0BD71
:10083C00204603A9FFF7ACFEF7E7002240681146FB
:10084C00FFF706BD002240681146FFF711BD0022DC
:10085C004068FFF705BD0022406881F00101FFF7F9
:10086C00EFBC002340681A461946FFF7E1BC002391
:10087C0040681A461946FFF7D3BC0022406811465F
:10088C00FFF7B6BC002202214068FFF7B9BC002379
:10089C0040681A46FFF7A4BC0422024B5A60024A75
:1008AC001A607047CC000020580C0A0800234068DE
:1008BC001A46FFF795BC002202214068FFF7A0BC46
:1008CC00002240681146FFF793BC00224068114695
:1008DC00FFF79EBC002340681A461946FFF7A0BCE0
:1008EC00002340681A461946FFF7A2BC0021406855
:1008FC00FFF7C6BC00214068FFF7CABC0022406865
:10090C0081F00101FFF79CBC00224068FFF7A8BCF6
:10091C00002240681146FFF7ABBC0022406811462C
:10092C00FFF796BC70B515468EB0044608A8FFF7C5
:10093C0021FE1122002103A800F08AF80026284687
:10094C0000F0BCF80A4B009681B25B68284603AAFB
:10095C00FFF722FC30B131462046FFF72BFE204634
:10096C000EB070BD204603A9FFF712FEF7E700BFDB
:10097C00CC000020024B034A1A6000225A607047D8
:10098C00D4000020940C0A087047000070B51425A0
:10099C0004462A46002100F05BF825808025074E8E
:1009AC00284631462581258200F03CF831466060AE
:1009BC00284600F037F8E060204670BDC80C0A08E5
:1009CC0030B50E4D87B02978BFF35B8F11F0010461
:1009DC0011D12846FFF75DFB68B101A8FFF7D6FFE0
:1009EC00214601AA0648FFF7EDFE2846FFF756FB05
:1009FC00044800F019F8024807B030BDDC000020B4
:100A0C00E000002095090A08002307B51A4619468C
:100A1C0000930348FFF7E4FD03B05DF804FB00BF4F
:100A2C00F8000020FFF731BB002301461A46184698
:100A3C0000F04CB80A44914200F1FF3300D17047EA
:100A4C0010B511F8014B914203F8014FF9D110BDCB
:100A5C0003460244934200D1704703F8011BF9E7A7
:100A6C0038B5104B04461D68AB6BB3B91820FFF7B3
:100A7C001FFC0246A86320B942210B4B0B48FFF721
:100A8C0027FC0B490B4BC0E900130B4B0021836077
:100A9C000B2383810120C2E904010022AB6B1C6192
:100AAC005A6138BD04000020C90C0A08E00C0A0881
:100ABC000E33CDAB34126DE6ECDE0500034613F8B5
:100ACC00012B002AFBD1181A013870472DE9F84385
:100ADC00DFF8AC800646D8F800001F460D4691465C
:100AEC0000F058F8274B1C6834B9274C1C60274B76
:100AFC0013B11B68C4F8883063681F2B07DDD8F866
:100B0C00000000F049F84FF0FF30BDE8F8835EB309
:100B1C00D4F8880088B91E4B23B9D8F8000000F02F
:100B2C003AF8F0E74FF48470FFF7C2FB0028F4D0DA
:100B3C000023C0E94033C4F8880001226368022E08
:100B4C0040F8239002FA03F200EB8301D0F8003155
:100B5C0043EA0203C0F80031C1F8807002BFD0F83C
:100B6C0004311343C0F804316368D8F800005A1CF0
:100B7C000233626044F8235000F00EF80020C4E702
:100B8C00680000209C0100201001002000000000E3
:100B9C00BD020A0870477047704700001D000A0824
:100BAC005D000A0885000A0889000A080000000098
:100BBC006170700025592D256D2D25645425483AFA
:100BCC00254D3A2553257A0061736374696D650070
:100BDC0000000000000000003F050A083D050A085F
:100BEC0071050A0800000000000000000B060A084E
:100BFC0071060A0849060A0821030A083B060A0876
:100C0C000D060A081D060A086B060A082D060A08B6
:100C1C0005060A08000000000000000059070A0839
:100C2C00C1070A089D070A0821030A086D070A086C
:100C3C0089070A087B070A0897070A085B070A084E
:100C4C005F070A0800000000000000009B080A086B
:100C5C0091080A0887080A08F9070A087B080A0895
:100C6C006F080A08F9080A0801090A0863080A0843
:100C7C005B080A0851080A0847080A0803080A080A
:100C8C000000000000000000B9080A08C3080A08A8
:100C9C00CD080A08D7080A08E1080A08ED080A086E
:100CAC00F9080A0801090A0809090A0815090A08B5
:100CBC001D090A0827090A0831090A080052454586
:100CCC004E54206D616C6C6F632073756363656546
:100CDC00646564002F6D6E742F776F726B73706127
:100CEC0063652F776F726B73706163652F47434336
:100CFC002D31302D706970656C696E652F6A656E6B
:100D0C006B696E732D4743432D31302D70697065BF
:100D1C006C696E652D34385F32303230313132349B
:100D2C005F313630363138303634312F7372632FB1
:100D3C006E65776C69622F6E65776C69622F6C6972
:100D4C0062632F7374646C69622F72616E642E63BC
:100D5C0000000000FD020A08AD030A08BD030A08E2
:100D6C00D1030A08A5080A0881090A08150A0A0805
:040D7C000000000073
:040D8000000000006F
:100D8400D40B0A0808000020000000000000000046
:100D9400000000000000000000000000000000004F
:100DA400000000000000000000000000000000003F
:100DB400000000000000000000000000000000002F
:100DC400000000000000000000000000000000001F
:100DD400000000000000000000000000000000000F
:0C0DE4000000000000000000A001002042
:100DF000FFFFFFFF00000102030405060708090AC0
:100E00000B0C0D0E0F101112131415161718191ABA
:080E10001B1C1D1E1F20280001
:040E180078563412C2
:04000005080A001CC9
:00000001FF
