:100000000EC03CC03BC03AC039C038C037C036C053
:1000100035C034C033C032C031C030C02FC011240D
:100020001FBECFE5D2E0DEBFCDBFEEE1F0E040E0A5
:1000300017C0B591A59135912591059107FD0CC08B
:1000400095918591EF01F92FE82F05900D92A21758
:10005000B307D9F7FE0104C01D92A217B307E1F759
:0E006000EE31F40731F70BD002C0F894FFCF59
:0E006E00EC0108D006D0CE0106D0CE0105D0A0
:02007C00C1CFF2
:02007E00FFCFB2
:020080000895E1
:020082000895DF
:020084000895DD
:02008600F1DFA8
:02000004008278
:0300000060DFFFBF
:02000004008377
:01000000FF00
:00000001FF
