:020000040000FA
:02000000FE2BD5
:100764000F308316031385008601F401F40AF301A4
:1007740001308312031386007308031DC22BC32B9D
:10078400CA2B7408F0007007F1007108F400D12B33
:100794007408F0000310700CF1007108F40040308C
:1007A4007402031CD62BD72BDE2B2030F0007008EC
:1007B400F400F301F30AEB2B7303031DE22BE32B89
:1007C400EB2B7408031DE72BE82BEB2BF401F40A45
:1007D400F30174088312031386000230F2004530DB
:1007E400F100A930F000F00BF52BF10BF52BF20B17
:0C07F400F52BFC2BBE2B00288301B22B40
:02400E00EA3F87
:00000001FF
