:02000000FE2BD5
:100756000F30831203139F000130831603138500A5
:100766008601F501F50AF4010130831203138600B0
:10077600831203130508F30073080319C32BC42B54
:10078600C62B7308F5007408031DCA2BCB2BD02B80
:100796007508F0007007F500D52B7508F0000310FA
:1007A600700CF50040307502031CDA2BDB2BE02BB6
:1007B6002030F500F401F40AED2B7403031DE42B3D
:1007C600E52BED2B7508031DE92BEA2BED2BF50127
:1007D600F50AF401750886000230F2004530F10092
:1007E600A930F000F00BF52BF10BF52BF20BF52BE6
:0A07F600FC2BBB2B00288301AB2B6A
:08400000FF3FFF3FFF3FFF3FC0
:02400E006A3F07
:00000001FF
